:020000040800F2
:10000000FFFF0120FD4A0008D1480008DF48000832
:10001000E5480008EB480008F1480008000000002F
:10002000000000000000000000000000F748000889
:100030000549000800000000134900082149000894
:100040004D4B00084D4B00084D4B00084D4B000830
:100050004D4B00084D4B00084D4B00084D4B000820
:100060004D4B00084D4B00084D4B00084D4B000810
:100070004D4B00084D4B00084D4B00084D4B000800
:100080004D4B00084D4B00084D4B00084D4B0008F0
:100090004D4B00084D4B00084D4B00084D4B0008E0
:1000A0004D4B00084D4B00084D4B00084D4B0008D0
:1000B0004D4B00082D4900083B4900084D4B0008F6
:1000C0004D4B00084D4B00084D4B00084D4B0008B0
:1000D0004D4B00084D4B00084D4B00084D4B0008A0
:1000E0004D4B00084D4B00084D4B00084D4B000890
:1000F0004D4B00084D4B00084D4B00084D4B000880
:100100004D4B00084D4B00084D4B00084D4B00086F
:100110004D4B00084D4B0008494900084D4B000865
:100120004D4B00084D4B00084D4B00084D4B00084F
:100130004D4B000800000000000000004D4B00087F
:100140004D4B00084D4B00084D4B00084D4B00082F
:100150004D4B00084D4B00084D4B00084D4B00081F
:100160004D4B00084D4B00084D4B00084D4B00080F
:100170004D4B00084D4B000800000000000000003F
:080180004D4B00084D4B000837
:1001900010B5054C237833B9044B13B10448AFF3C1
:1001A00000800123237010BD7000002000000000BB
:1001B000C05B000808B5034B1BB103490348AFF30C
:1001C000008008BD0000000074000020C05B000833
:1001D00001F0FF01102A2BDB10F0070F08D010F8F8
:1001E000013B013A8B422DD010F0070F42B3F6D1FC
:1001F000F0B441EA012141EA014122F007047FF015
:1002000000070023F0E80256083C85EA010586EA6B
:10021000010685FA47F5A3FA87F586FA47F6A5FAA7
:1002200087F68EB9EED1F0BC01F0FF0102F00702B3
:1002300032B110F8013B013A83EA010313B1F8D15E
:100240000020704701387047002D06BF354603383F
:10025000073815F0010F07D1013015F4807F02BF78
:10026000013015F4C03F0130F0BC0138704700BFC9
:1002700081F0004102E000BF83F0004330B54FEA57
:1002800041044FEA430594EA050F08BF90EA020FC4
:100290001FBF54EA000C55EA020C7FEA645C7FEA57
:1002A000655C00F0E2804FEA5454D4EB5555B8BF7A
:1002B0006D420CDD2C4480EA020281EA030382EAEB
:1002C000000083EA010180EA020281EA0303362D7D
:1002D00088BF30BD11F0004F4FEA01314FF4801C50
:1002E0004CEA113102D0404261EB410113F0004F62
:1002F0004FEA03334CEA133302D0524263EB430319
:1003000094EA050F00F0A780A4F10104D5F1200EB6
:100310000DDB02FA0EFC22FA05F2801841F1000111
:1003200003FA0EF2801843FA05F359410EE0A5F1E5
:1003300020050EF1200E012A03FA0EFC28BF4CF016
:10034000020C43FA05F3C01851EBE37101F00045CC
:1003500007D54FF0000EDCF1000C7EEB00006EEBD9
:100360000101B1F5801F1BD3B1F5001F0CD3490863
:100370005FEA30004FEA3C0C04F101044FEA4452BA
:1003800012F5800F80F09A80BCF1004F08BF5FEA41
:10039000500C50F1000041EB045141EA050130BD21
:1003A0005FEA4C0C404141EB010111F4801FA4F1C4
:1003B0000104E9D191F0000F04BF01460020B1FA19
:1003C00081F308BF2033A3F10B03B3F120020CDA51
:1003D0000C3208DD02F1140CC2F10C0201FA0CF02F
:1003E00021FA02F10CE002F11402D8BFC2F1200C94
:1003F00001FA02F120FA0CFCDCBF41EA0C0190404A
:10040000E41AA2BF01EB0451294330BD6FEA040492
:100410001F3C1CDA0C340EDC04F11404C4F120027D
:1004200020FA04F001FA02F340EA030021FA04F38F
:1004300045EA030130BDC4F10C04C4F1200220FAE6
:1004400002F001FA04F340EA0300294630BD21FA24
:1004500004F0294630BD94F0000F83F4801306BFEA
:1004600081F480110134013D4EE77FEA645C18BFDE
:100470007FEA655C29D094EA050F08BF90EA020F75
:1004800005D054EA000C04BF1946104630BD91EA6D
:10049000030F1EBF0021002030BD5FEA545C05D170
:1004A0004000494128BF41F0004130BD14F58004AF
:1004B0003CBF01F5801130BD01F0004545F0FE4123
:1004C00041F470014FF0000030BD7FEA645C1ABF58
:1004D000194610467FEA655C1CBF0B46024650EA8F
:1004E000013406BF52EA033591EA030F41F40021BB
:1004F00030BD00BF90F0000F04BF0021704730B541
:100500004FF4806404F132044FF000054FF0000115
:1005100050E700BF90F0000F04BF0021704730B5D6
:100520004FF4806404F1320410F0004548BF4042AB
:100530004FF000013EE700BF42004FEAE2014FEA00
:1005400031014FEA02701FBF12F07F4393F07F4FDB
:1005500081F06051704732F07F4208BF704793F0DE
:100560007F4F04BF41F40021704730B54FF46074F1
:1005700001F0004521F000411CE700BF50EA0102F4
:1005800008BF704730B54FF000050AE050EA01029D
:1005900008BF704730B511F0004502D5404261EB0D
:1005A00041014FF4806404F132045FEA915C3FF44E
:1005B000D8AE4FF003025FEADC0C18BF03325FEAEB
:1005C000DC0C18BF033202EBDC02C2F1200300FA9C
:1005D00003FC20FA02F001FA03FE40EA0E0021FAC1
:1005E00002F11444BDE600BF70B54FF0FF0C4CF4AF
:1005F000E06C1CEA11541DBF1CEA135594EA0C0F61
:1006000095EA0C0F00F0DEF82C4481EA030621EA9B
:100610004C5123EA4C5350EA013518BF52EA0335D6
:1006200041F4801143F4801338D0A0FB02CE4FF088
:100630000005E1FB02E506F00042E0FB03E54FF0B8
:100640000006E1FB03569CF0000F18BF4EF0010EB0
:10065000A4F1FF04B6F5007F64F5407404D25FEAAC
:100660004E0E6D4146EB060642EAC62141EA55515F
:100670004FEAC52040EA5E504FEACE2EB4F1FD0CA1
:1006800088BFBCF5E06F1ED8BEF1004F08BF5FEA1F
:10069000500E50F1000041EB045170BD06F00046D1
:1006A00046EA010140EA020081EA0301B4EB5C047E
:1006B000C2BFD4EB0C0541EA045170BD41F4801176
:1006C0004FF0000E013C00F3AB8014F1360FDEBF9B
:1006D000002001F0004170BDC4F10004203C35DA77
:1006E0000C341BDC04F11404C4F1200500FA05F3FA
:1006F00020FA04F001FA05F240EA020001F000429B
:1007000021F0004110EBD37021FA04F642EB060110
:100710005EEA430E08BF20EAD37070BDC4F10C043A
:10072000C4F1200500FA04F320FA05F001FA04F2FE
:1007300040EA020001F0004110EBD37041F10001EA
:100740005EEA430E08BF20EAD37070BDC4F12005F5
:1007500000FA05F24EEA020E20FA04F301FA05F25D
:1007600043EA020321FA04F001F0004121FA04F205
:1007700020EA020000EBD3705EEA430E08BF20EAD5
:10078000D37070BD94F0000F0FD101F0004640000F
:1007900041EB010111F4801F08BF013CF7D041EA91
:1007A000060195F0000F18BF704703F00046520095
:1007B00043EB030313F4801F08BF013DF7D043EA66
:1007C0000603704794EA0C0F0CEA135518BF95EA1C
:1007D0000C0F0CD050EA410618BF52EA4306D1D1A3
:1007E00081EA030101F000414FF0000070BD50EAC2
:1007F000410606BF1046194652EA430619D094EA4C
:100800000C0F02D150EA013613D195EA0C0F05D135
:1008100052EA03361CBF104619460AD181EA030189
:1008200001F0004141F0FE4141F470014FF0000041
:1008300070BD41F0FE4141F4780170BD70B54FF0DC
:10084000FF0C4CF4E06C1CEA11541DBF1CEA13555C
:1008500094EA0C0F95EA0C0F00F0A7F8A4EB05043E
:1008600081EA030E52EA03354FEA013100F0888035
:100870004FEA03334FF0805545EA131343EA1263FE
:100880004FEA022245EA111545EA10654FEA0026B3
:100890000EF000419D4208BF964244F1FD0404F56C
:1008A000407402D25B084FEA3202B61A65EB0305C8
:1008B0005B084FEA32024FF480104FF4002CB6EB85
:1008C000020E75EB030E22BFB61A754640EA0C0005
:1008D0005B084FEA3202B6EB020E75EB030E22BF45
:1008E000B61A754640EA5C005B084FEA3202B6EB86
:1008F000020E75EB030E22BFB61A754640EA9C0045
:100900005B084FEA3202B6EB020E75EB030E22BF14
:10091000B61A754640EADC0055EA060E18D04FEAD2
:10092000051545EA16754FEA06164FEAC30343EA72
:1009300052734FEAC2025FEA1C1CC0D111F4801F3F
:100940000BD141EA00014FF000004FF0004CB6E738
:1009500011F4801F04BF01430020B4F1FD0C88BFD7
:10096000BCF5E06F3FF6AFAEB5EB030C04BFB6EBE2
:10097000020C5FEA500C50F1000041EB045170BDD5
:100980000EF0004E4EEA113114EB5C04C2BFD4EB02
:100990000C0541EA045170BD41F480114FF0000E86
:1009A000013C90E645EA060E8DE60CEA135594EA02
:1009B0000C0F08BF95EA0C0F3FF43BAF94EA0C0F05
:1009C0000AD150EA01347FF434AF95EA0C0F7FF47A
:1009D00025AF104619462CE795EA0C0F06D152EACE
:1009E00003353FF4FDAE1046194622E750EA4106B2
:1009F00018BF52EA43067FF4C5AE50EA41047FF4C3
:100A00000DAF52EA43057FF4EBAE12E74FEA410225
:100A1000B2F1E04324BFB3F5001CDCF1FE5C0DD95C
:100A200001F0004C4FEAC0024CEA5070B2F1004FA6
:100A300040EB830008BF20F00100704711F0804FA9
:100A400021D113F13872BCBF01F00040704741F46E
:100A500080114FEA5252C2F11802C2F1200C10FA72
:100A60000CF320FA02F018BF40F001004FEAC12356
:100A70004FEAD32303FA0CFC40EA0C0023FA02F3FA
:100A80004FEA4303CCE77FEA625307D150EA0133D0
:100A90001EBF4FF0FE4040F44000704701F00040A0
:100AA00040F0FE4040F40000704700BF53B94AB91F
:100AB000002908BF00281CBF4FF0FF314FF0FF3066
:100AC00000F072B9ADF1080C6DE904CE00F006F843
:100AD000DDF804E0DDE9022304B070472DE9F047BA
:100AE000089E04468846002B4BD18A42154667D99A
:100AF000B2FA82F24AB1C2F1200701FA02F320FAF7
:100B000007F7954047EA030894404FEA154E230C37
:100B1000B8FBFEF71FFA85FC0EFB178843EA084373
:100B200007FB0CF1994209D9EB1807F1FF3080F06F
:100B30001B81994240F21881023F2B445B1AA4B2F8
:100B4000B3FBFEF00EFB103344EA034400FB0CFC45
:100B5000A44509D92C1900F1FF3380F00781A44581
:100B600040F2048102382C4440EA0740A4EB0C0414
:100B700000271EB1D4400023C6E900433946BDE832
:100B8000F0878B4209D9002E00F0EB800027C6E9E0
:100B9000000138463946BDE8F087B3FA83F7002FE5
:100BA00047D18B4202D3824200F2FA80841A61EB71
:100BB000030301209846002EE0D0C6E90048DDE797
:100BC00002B9FFDEB2FA82F2002A40F08F80491BA0
:100BD0004FEA154E1FFA85F80127B1FBFEFC230CE6
:100BE0000EFB1C1143EA014308FB0CF1994207D9A3
:100BF000EB180CF1FF3002D2994200F2CD8084460E
:100C0000591AA3B2B1FBFEF00EFB101443EA0444E0
:100C100008FB00F8A04507D92C1900F1FF3302D2D8
:100C2000A04500F2B6801846A4EB080440EA0C4048
:100C30009FE7C7F1200CBB4022FA0CFE4EEA030EE0
:100C400001FA07F420FA0CF521FA0CF34FEA1E48DA
:100C50002543B3FBF8F92C0C08FB19331FFA8EFA65
:100C600044EA034309FB0AF49C4202FA07F200FA41
:100C700007F10BD91EEB030309F1FF3080F08780E9
:100C80009C4240F28480A9F1020973441B1BADB25F
:100C9000B3FBF8F008FB103345EA034400FB0AFA03
:100CA000A24508D91EEB040400F1FF336BD2A24524
:100CB00069D90238744440EA0940A0FB0289A4EBD8
:100CC0000A044C45C2464B4654D351D0002E69D03D
:100CD000B1EB0A0564EB030404FA0CFCFD40FC4094
:100CE0004CEA0505C6E90054002747E7C2F1200396
:100CF00020FA03F7954001FA02F021FA03F34FEAD4
:100D0000154E3843010CB3FBFEF71FFA85F80EFBB6
:100D1000173341EA034107FB08F38B4204FA02F45C
:100D200007D9691807F1FF3C2FD28B422DD9023F1A
:100D30002944CB1A81B2B3FBFEF00EFB103341EA1B
:100D4000034100FB08F38B4207D9691800F1FF3C0F
:100D500017D28B4215D902382944C91A40EA0747ED
:100D60003BE73746304609E70746E7E61846FBE625
:100D70004145ABD2B8EB020A69EB0E0201381346CB
:100D8000A4E76046E9E7184695E76746D1E781465C
:100D90007CE702382C4447E7ACF1020C2B442FE7E8
:100DA000384608E73746E9E6704700BF80B500AF30
:100DB0000E4B1B680D4A43F4007313600B4B1B680A
:100DC0000A4A43F480631360084B1B68074A43F4E4
:100DD00080731360032000F007FD002000F008F886
:100DE00003F064FB0023184680BD00BF003C0240B6
:100DF00080B582B000AF7860124B1A68124B1B7836
:100E000019464FF47A73B3FBF1F3B2FBF3F31846D0
:100E100000F01FFD0346002B01D001230EE07B688C
:100E20000F2B0AD8002279684FF0FF3000F0E7FC62
:100E3000064A7B681360002300E001231846083748
:100E4000BD4680BD080000200400002000000020F6
:100E500080B400AF064B1B781A46064B1B68134440
:100E6000044A136000BFBD465DF8047B704700BFB5
:100E700004000020B800002080B400AF034B1B68C2
:100E80001846BD465DF8047B704700BFB8000020DF
:100E900080B584B000AF7860FFF7EEFFB8607B6884
:100EA000FB60FB68B3F1FF3F05D0094B1B781A4686
:100EB000FB681344FB6000BFFFF7DEFF0246BB6820
:100EC000D31AFA689A42F7D800BF1037BD4680BDE2
:100ED0000400002080B584B000AF78600023FB736D
:100EE0007B68002B01D1012333E07B681B6C002B56
:100EF00009D1786803F002FB7B6800225A647B68A2
:100F0000002283F83C207B681B6C03F01003002B4D
:100F100018D17B681B6C23F4885323F0020343F041
:100F200002027B681A64786800F092FA7B680022FB
:100F30005A647B681B6C23F0030343F001027B6857
:100F40001A6401E00123FB737B68002283F83C20D4
:100F5000FB7B18461037BD4680BD000080B485B0CD
:100F600000AF78600023BB607B6893F83C30012BB6
:100F700001D10223A5E07B68012283F83C207B6835
:100F80001B689B6803F00103012B18D07B681B686A
:100F90009A687B681B6842F001029A604C4B1B68A0
:100FA0004C4AA2FB03239A0C13465B001344BB601C
:100FB00002E0BB68013BBB60BB68002BF9D17B68DA
:100FC0001B689B6803F00103012B79D17B681B6CC4
:100FD00023F4E06323F0010343F480727B681A6416
:100FE0007B681B685B6803F48063002B07D07B6819
:100FF0001B6C23F4405343F480527B681A647B6873
:101000001B6C03F48053B3F5805F06D17B685B6C87
:1010100023F006027B685A6402E07B6800225A646F
:101020007B68002283F83C202B4BFB607B681B68AD
:101030006FF022021A60FB685B6803F01F03002B4D
:101040002AD17B681B68254A934215D07B681B68B0
:10105000234A934205D1204B5B6803F01F03002B0A
:101060000AD07B681B681F4A934229D11A4B5B68E0
:1010700003F01F030F2B23D87B681B689B6803F0CA
:101080004053002B1CD17B681B689A687B681B68E7
:1010900042F080429A6013E07B681B680F4A9342DB
:1010A0000ED17B681B689B6803F04053002B07D16F
:1010B0007B681B689A687B681B6842F080429A6074
:1010C000002318461437BD465DF8047B704700BF07
:1010D0000800002083DE1B43002301400020014064
:1010E000002101400022014080B584B000AF78604B
:1010F00039600023FB607B681B689B6803F4806396
:10110000B3F5806F13D17B681B689B6803F4807311
:10111000B3F5807F0BD17B681B6C43F020027B68AA
:101120001A647B68002283F83C2001235CE0FFF70F
:10113000A3FEF8601AE03B68B3F1FF3F16D03B68AE
:10114000002B07D0FFF798FE0246FB68D31A3A68D7
:101150009A420BD27B681B6C43F004027B681A64D2
:101160007B68002283F83C2003233DE07B681B68FA
:101170001B6803F00203022BDDD17B681B686FF054
:1011800012021A607B681B6C43F400727B681A645D
:101190007B681B689B6803F04053002B23D17B685E
:1011A0001B7E002B1FD17B681B68DB6A03F4700376
:1011B000002B06D07B681B689B6803F48063002BC0
:1011C00011D17B681B6C23F480727B681A647B6886
:1011D0001B6C03F48053002B05D17B681B6C43F020
:1011E00001027B681A64002318461037BD4680BD93
:1011F00080B483B000AF78607B681B68DB6C1846F6
:101200000C37BD465DF8047B7047000080B485B0A4
:1012100000AF786039600023BB607B6893F83C3096
:10122000012B01D1022305E17B68012283F83C20D8
:101230003B681B68092B25D97B681B68D9683B680C
:101240001B689BB21A4613465B0013441E3B0722E1
:1012500002FA03F3DA437B681B680A40DA607B68B2
:101260001B68D9683B689A683B681B689BB2184644
:1012700003465B0003441E3B9A407B681B680A439D
:10128000DA6022E07B681B6819693B681B689BB2C7
:101290001A4613465B001344072202FA03F3DA43AB
:1012A0007B681B680A401A617B681B6819693B6888
:1012B0009A683B681B689BB2184603465B00034470
:1012C0009A407B681B680A431A613B685B68062B7F
:1012D00024D87B681B68596B3B685A6813469B008F
:1012E0001344053B1F2202FA03F3DA437B681B68B1
:1012F0000A405A637B681B68596B3B681B689BB24A
:1013000018463B685A6813469B001344053B00FA95
:1013100003F27B681B680A435A634CE03B685B68D6
:101320000C2B24D87B681B68196B3B685A681346E2
:101330009B001344233B1F2202FA03F3DA437B682A
:101340001B680A401A637B681B68196B3B681B6843
:101350009BB218463B685A6813469B001344233BD4
:1013600000FA03F27B681B680A431A6323E07B6878
:101370001B68D96A3B685A6813469B001344413B7B
:101380001F2202FA03F3DA437B681B680A40DA6221
:101390007B681B68D96A3B681B689BB218463B6830
:1013A0005A6813469B001344413B00FA03F27B68E2
:1013B0001B680A43DA62224BFB607B681B68214A88
:1013C000934209D13B681B68122B05D1FB685B680F
:1013D00043F48002FB685A607B681B68194A934299
:1013E00023D13B681B68102B03D03B681B68112B73
:1013F0001BD1FB685B6843F40002FB685A603B68E2
:101400001B68102B11D1104B1B68104AA2FB032341
:101410009A0C13469B0013445B00BB6002E0BB6860
:10142000013BBB60BB68002BF9D17B68002283F8CD
:101430003C20002318461437BD465DF8047B7047F6
:1014400000230140002001400800002083DE1B43F0
:1014500080B485B000AF7860794BFB60FB685B6857
:1014600023F44032FB685A60FB685A687B685B680B
:101470001A43FB685A607B681B685A687B681B6864
:1014800022F480725A607B681B6859687B681B690C
:101490001A027B681B680A435A607B681B685A689B
:1014A0007B681B6822F040725A607B681B68596831
:1014B0007B689A687B681B680A435A607B681B6874
:1014C0009A687B681B6822F400629A607B681B68DC
:1014D00099687B68DA687B681B680A439A607B6856
:1014E0009B6A584A934222D07B681B689A687B6843
:1014F0001B6822F070629A607B681B6899687B6841
:101500009A6A7B681B680A439A607B681B689A68C2
:101510007B681B6822F040529A607B681B68996860
:101520007B68DA6A7B681B680A439A600FE07B6815
:101530001B689A687B681B6822F070629A607B68FF
:101540001B689A687B681B6822F040529A607B682F
:101550001B689A687B681B6822F002029A607B68AD
:101560001B6899687B681B7E5A007B681B680A436E
:101570009A607B6893F82030002B1BD07B681B6837
:101580005A687B681B6842F400625A607B681B687B
:101590005A687B681B6822F460425A607B681B684B
:1015A00059687B685B6A013B5A037B681B680A4386
:1015B0005A6007E07B681B685A687B681B6822F4E6
:1015C00000625A607B681B68DA6A7B681B6822F4D9
:1015D0007002DA627B681B68D96A7B68DB69013B51
:1015E0001A057B681B680A43DA627B681B689A6885
:1015F0007B681B6822F400729A607B681B6899689C
:101600007B6893F830305A027B681B680A439A6003
:101610007B681B689A687B681B6822F480629A600A
:101620007B681B6899687B685B699A027B681B68AA
:101630000A439A6000BF1437BD465DF8047B7047CB
:10164000002301400100000F80B485B000AF786036
:101650007B6803F00703FB600C4BDB68BB60BA6878
:101660004FF6FF031340BB60FB681A02BB681343CD
:1016700043F0BF6343F40033BB60044ABB68D360EC
:1016800000BF1437BD465DF8047B704700ED00E0F5
:1016900080B400AF044BDB681B0A03F00703184655
:1016A000BD465DF8047B704700ED00E080B483B078
:1016B00000AF0346FB7197F90730002B0BDBFB797A
:1016C00003F01F02074997F907305B09012000FA70
:1016D00002F241F8232000BF0C37BD465DF8047BC1
:1016E000704700BF00E100E080B483B000AF034664
:1016F0003960FB7197F90730002B0ADB3B68DAB2DF
:101700000C4997F907301201D2B20B4483F8002339
:101710000AE03B68DAB20849FB7903F00F03043BA7
:101720001201D2B20B441A7600BF0C37BD465DF8E9
:10173000047B704700E100E000ED00E080B489B078
:1017400000AFF860B9607A60FB6803F00703FB61E3
:10175000FB69C3F10703042B28BF0423BB61FB69AA
:101760000433062B02D9FB69033B00E000237B61B5
:101770004FF0FF32BB6902FA03F3DA43BB681A4049
:101780007B699A404FF0FF317B6901FA03F3D9433B
:101790007B680B40134318462437BD465DF8047B35
:1017A0007047000080B582B000AF78607B68013B75
:1017B000B3F1807F01D301230FE00A4A7B68013B2C
:1017C00053600F214FF0FF30FFF78EFF054B0022D3
:1017D0009A60044B07221A60002318460837BD465A
:1017E00080BD00BF10E000E080B582B000AF78603F
:1017F0007868FFF729FF00BF0837BD4680BD80B578
:1018000086B000AF0346B9607A60FB7300237B614A
:10181000FFF73EFF78617A68B9687869FFF78EFF55
:10182000024697F90F3011461846FFF75DFF00BFDB
:101830001837BD4680BD80B582B000AF0346FB714E
:1018400097F907301846FFF731FF00BF0837BD464C
:1018500080BD80B582B000AF78607868FFF7A2FFE6
:10186000034618460837BD4680BD000080B489B0E5
:1018700000AF7860396000237B6100233B61002367
:10188000BB610023FB616BE10122FB6902FA03F3F8
:101890007B613B681B687A6913403B613A697B69ED
:1018A0009A4240F05A813B685B68022B03D03B6848
:1018B0005B68122B23D1FB69DA087B68083253F886
:1018C0002230BB61FB6903F007039B000F2202FA81
:1018D00003F3DB43BA691340BB613B681A69FB69D8
:1018E00003F007039B0002FA03F3BA691343BB61D9
:1018F000FB69DA087B680832B96943F822107B6813
:101900001B68BB61FB695B00032202FA03F3DB4344
:10191000BA691340BB613B685B6803F00302FB6973
:101920005B0002FA03F3BA691343BB617B68BA69CF
:101930001A603B685B68012B0BD03B685B68022B2D
:1019400007D03B685B68112B03D03B685B68122BA8
:1019500030D17B689B68BB61FB695B00032202FAA4
:1019600003F3DB43BA691340BB613B68DA68FB6988
:101970005B0002FA03F3BA691343BB617B68BA697F
:101980009A607B685B68BB610122FB6902FA03F322
:10199000DB43BA691340BB613B685B681B0903F01A
:1019A0000102FB6902FA03F3BA691343BB617B6866
:1019B000BA695A607B68DB68BB61FB695B00032224
:1019C00002FA03F3DB43BA691340BB613B689A68D0
:1019D000FB695B0002FA03F3BA691343BB617B68DE
:1019E000BA69DA603B685B6803F08053002B00F053
:1019F000B4800023FB605F4B5B6C5E4A43F4804322
:101A000053645C4B5B6C03F48043FB60FB685A4A95
:101A1000FB699B08023352F82330BB61FB6903F07A
:101A200003039B000F2202FA03F3DB43BA6913405E
:101A3000BB617B68514A93422BD07B68504A9342EA
:101A400025D07B684F4A93421FD07B684E4A934211
:101A500019D07B684D4A934213D07B684C4A93421D
:101A60000DD07B684B4A934207D07B684A4A934229
:101A700001D107230EE008230CE006230AE005232A
:101A800008E0042306E0032304E0022302E001232C
:101A900000E00023FA6902F0030292009340BA6961
:101AA0001343BB613449FB699B080233BA6941F8AF
:101AB00023203A4B1B68BB613B69DB43BA69134087
:101AC000BB613B685B6803F48033002B03D0BA69C9
:101AD0003B691343BB61314ABB6913602F4B5B68A1
:101AE000BB613B69DB43BA691340BB613B685B6820
:101AF00003F40033002B03D0BA693B691343BB6185
:101B0000264ABB695360254B9B68BB613B69DB433D
:101B1000BA691340BB613B685B6803F48013002B18
:101B200003D0BA693B691343BB611C4ABB6993602C
:101B30001A4BDB68BB613B69DB43BA691340BB618D
:101B40003B685B6803F40013002B03D0BA693B6960
:101B50001343BB61114ABB69D360FB690133FB616D
:101B6000FB690F2B7FF690AE00BF2437BD465DF8B2
:101B7000047B7047003802400038014000000240FA
:101B80000004024000080240000C02400010024025
:101B90000014024000180240001C0240003C0140BA
:101BA00080B483B000AF78600B467B8013467B70B7
:101BB0007B78002B03D07A887B689A6103E07B886E
:101BC0001A047B689A6100BF0C37BD465DF8047B40
:101BD0007047000080B586B000AF78607B68002B4E
:101BE00001D101232DE27B681B6803F00103002B68
:101BF00075D0A34B9B6803F00C03042B0CD0A04BB7
:101C00009B6803F00C03082B12D19D4B5B6803F417
:101C10008003B3F5800F0BD1994B1B6803F400339D
:101C2000002B5BD07B685B68002B57D1012308E257
:101C30007B685B68B3F5803F06D1914B1B68904A87
:101C400043F4803313601DE07B685B68B3F5A02F1D
:101C50000CD18B4B1B688A4A43F480231360884B5A
:101C60001B68874A43F4803313600BE0844B1B6886
:101C7000834A23F480331360814B1B68804A23F42A
:101C8000802313607B685B68002B13D0FFF7F4F8A8
:101C9000386108E0FFF7F0F802463B69D31A642B7D
:101CA00001D90323CDE1764B1B6803F40033002BED
:101CB000F0D014E0FFF7E0F8386108E0FFF7DCF857
:101CC00002463B69D31A642B01D90323B9E16C4B5B
:101CD0001B6803F40033002BF0D100E000BF7B68E9
:101CE0001B6803F00203002B63D0654B9B6803F075
:101CF0000C03002B0BD0624B9B6803F00C03082BEA
:101D00001CD15F4B5B6803F48003002B16D15C4B46
:101D10001B6803F00203002B05D07B68DB68012BF6
:101D200001D001238DE1564B1B6823F0F8027B683C
:101D30001B69DB00524913430B603AE07B68DB68A8
:101D4000002B20D04F4B01221A60FFF795F8386125
:101D500008E0FFF791F802463B69D31A022B01D93C
:101D600003236EE1464B1B6803F00203002BF0D007
:101D7000434B1B6823F0F8027B681B69DB0040497A
:101D800013430B6015E03F4B00221A60FFF774F815
:101D9000386108E0FFF770F802463B69D31A022B5E
:101DA00001D903234DE1364B1B6803F00203002BDE
:101DB000F0D17B681B6803F00803002B30D07B68F0
:101DC0005B69002B16D0304B01221A60FFF754F8E4
:101DD000386108E0FFF750F802463B69D31A022B3E
:101DE00001D903232DE1264B5B6F03F00203002B87
:101DF000F0D015E0244B00221A60FFF73DF838615F
:101E000008E0FFF739F802463B69D31A022B01D9E3
:101E1000032316E11A4B5B6F03F00203002BF0D192
:101E20007B681B6803F00403002B00F0A0800023F4
:101E3000FB75134B1B6C03F08053002B0FD1002359
:101E4000FB600F4B1B6C0E4A43F0805313640C4B2A
:101E50001B6C03F08053FB60FB680123FB750B4B8D
:101E60001B6803F48073002B21D1084B1B68074AC1
:101E700043F480731360FEF7FFFF386111E000BF89
:101E80000038024000004742800E47420070004088
:101E9000FEF7F2FF02463B69D31A022B01D9032356
:101EA000CFE06A4B1B6803F48073002BF0D07B6893
:101EB0009B68012B06D1664B1B6F654A43F00103FB
:101EC00013671CE07B689B68052B0CD1604B1B6F74
:101ED0005F4A43F0040313675D4B1B6F5C4A43F09A
:101EE000010313670BE05A4B1B6F594A23F00103A0
:101EF0001367574B1B6F564A23F0040313677B6825
:101F00009B68002B15D0FEF7B7FF38610AE0FEF79B
:101F1000B3FF02463B69D31A41F28832934201D99A
:101F200003238EE04A4B1B6F03F00203002BEED01D
:101F300014E0FEF7A1FF38610AE0FEF79DFF0246BC
:101F40003B69D31A41F28832934201D9032378E0E6
:101F50003F4B1B6F03F00203002BEED1FB7D012BE7
:101F600005D13B4B1B6C3A4A23F0805313647B68CA
:101F70009B69002B64D0364B9B6803F00C03082B45
:101F80005CD07B689B69022B41D1324B00221A60E6
:101F9000FEF772FF386108E0FEF76EFF02463B690C
:101FA000D31A022B01D903234BE0294B1B6803F002
:101FB0000073002BF0D17B68DA697B681B6A1A43D7
:101FC0007B685B6A9B011A437B689B6A5B08013BE9
:101FD0001B041A437B68DB6A1B061D4913434B60D5
:101FE0001C4B01221A60FEF747FF386108E0FEF73C
:101FF00043FF02463B69D31A022B01D9032320E099
:10200000134B1B6803F00073002BF0D018E0114B4A
:1020100000221A60FEF730FF386108E0FEF72CFF5F
:1020200002463B69D31A022B01D9032309E0084B6E
:102030001B6803F00073002BF0D101E0012300E0E6
:10204000002318461837BD4680BD00BF0070004011
:10205000003802406000474280B584B000AF78602D
:1020600039607B68002B01D10123CAE0674B1B68F4
:1020700003F00F033A689A420CD9644B3A68D2B223
:102080001A70624B1B6803F00F033A689A4201D042
:102090000123B6E07B681B6803F00203002B20D00D
:1020A0007B681B6803F00403002B05D0584B9B682A
:1020B000574A43F4E05393607B681B6803F00803BE
:1020C000002B05D0524B9B68514A43F46043936008
:1020D0004F4B9B6823F0F0027B689B684C4913438D
:1020E0008B607B681B6803F00103002B44D07B6886
:1020F0005B68012B07D1464B1B6803F40033002BB0
:1021000019D101237DE07B685B68022B03D07B68DB
:102110005B68032B07D13E4B1B6803F00073002B59
:1021200009D101236DE03A4B1B6803F00203002B39
:1021300001D1012365E0364B9B6823F003027B68E5
:102140005B68334913438B60FEF796FEF8600AE044
:10215000FEF792FE0246FB68D31A41F288329342A0
:1021600001D903234DE02A4B9B6803F00C027B68E6
:102170005B689B009A42EBD1244B1B6803F00F0372
:102180003A689A420CD2214B3A68D2B21A701F4B6D
:102190001B6803F00F033A689A4201D0012330E034
:1021A0007B681B6803F00403002B08D0184B9B6866
:1021B00023F4E0527B68DB68154913438B607B682E
:1021C0001B6803F00803002B09D0114B9B6823F414
:1021D00060427B681B69DB000D4913438B6000F094
:1021E0001DF801460A4B9B681B0903F00F03094ABF
:1021F000D35C21FA03F3084A13600020FEF7F8FDD0
:10220000002318461037BD4680BD00BF003C024089
:10221000003802400C5C000808000020F0B585B0D2
:1022200000AF00237B600023FB6000233B600023A2
:10223000BB60504B9B6803F00C03042B07D0082BAA
:1022400008D0002B40F08D804B4BBB608CE04B4B9B
:10225000BB6089E0474B5B6803F03F037B60454B05
:102260005B6803F48003002B23D0424B5B689B091F
:102270004FF0000440F2FF114FF0000203EA0105A5
:1022800004EA02063D4A02FB06F1002202FB05F2C7
:102290000A443A49A5FB0101531819467B684FF0DF
:1022A00000041A462346FEF701FC03460C46FB6079
:1022B00049E0304B5B689B094FF0000440F2FF118E
:1022C0004FF0000203EA010504EA020629463246FD
:1022D0004FF000034FF00004540144EAD1644B0175
:1022E00019462246491B62EB06024FF000034FF0ED
:1022F0000004940144EA91648B015B1A64EB0204CC
:102300004FF000014FF00002E20042EA5372D900A0
:102310000B4614465B1944EB06044FF000014FF0E6
:102320000002A20242EA935299020B461446184652
:1023300021467B684FF000041A462346FEF7B6FBA1
:1023400003460C46FB600B4B5B681B0C03F003035E
:1023500001335B003B60FA683B68B2FBF3F3BB60A0
:1023600002E0054BBB6000BFBB6818461437BD4692
:10237000F0BD00BF003802400024F40040787D0129
:1023800080B400AF034B1B681846BD465DF8047B64
:10239000704700BF0800002080B500AFFFF7F0FFD6
:1023A0000146054B9B689B0A03F00703034AD35C75
:1023B00021FA03F3184680BD003802401C5C000877
:1023C00080B500AFFFF7DCFF0146054B9B685B0B58
:1023D00003F00703034AD35C21FA03F3184680BDD8
:1023E000003802401C5C000880B582B000AF786005
:1023F0007B68002B01D101231DE07B6893F83D3001
:10240000DBB2002B06D17B68002283F83C20786881
:1024100002F0B8F87B68022283F83D207B681A68D6
:102420007B6804331946104600F0DAFB7B68012212
:1024300083F83D20002318460837BD4680BD80B490
:1024400085B000AF78607B681B68DA687B681B68C2
:1024500042F00102DA607B681B689B6803F00703A7
:10246000FB60FB68062B07D07B681B681A687B68DB
:102470001B6842F001021A60002318461437BD465B
:102480005DF8047B704780B582B000AF78607B68F0
:10249000002B01D101231DE07B6893F83D30DBB2B6
:1024A000002B06D17B68002283F83C20786800F07E
:1024B00015F87B68022283F83D207B681A687B68E8
:1024C00004331946104600F08BFB7B68012283F829
:1024D0003D20002318460837BD4680BD80B483B038
:1024E00000AF786000BF0C37BD465DF8047B7047D5
:1024F00080B586B000AF786039607B68002B01D171
:10250000012383E07B6893F83D30DBB2002B06D1DA
:102510007B68002283F83C20786802F08DF87B68A5
:10252000022283F83D207B681B689B687A681268EA
:1025300023F4804323F0070393607B681A687B6869
:1025400004331946104600F04BFB7B681B689B6800
:102550007B617B681B689B693B617B681B681B6AAE
:10256000FB603B681B687A6913437B613B6923F41A
:10257000407323F003033B613B689A683B689B69A7
:102580001B0213433A6913433B613B6923F44063E5
:1025900023F00C033B613B6923F4704323F0F00309
:1025A0003B613B68DA683B68DB691B0213433A69AD
:1025B00013433B613B681B691A013B681B6A1B03A1
:1025C00013433A6913433B61FB6823F02203FB602A
:1025D000FB6823F08803FB603B685A683B685B69D3
:1025E0001B011343FA681343FB607B681B687A691D
:1025F0009A607B681B683A699A617B681B68FA6815
:102600001A627B68012283F83D20002318461837A0
:10261000BD4680BD80B582B000AF786039603B6850
:10262000002B02D0042B08D00FE07B681B6801222E
:102630000021184600F0BEFD16E07B681B680122F1
:102640000421184600F0B6FD0EE07B681B680122ED
:102650000021184600F0AEFD7B681B6801220421B2
:10266000184600F0A7FD00BF7B681B681A687B68EE
:102670001B6842F001021A60002318460837BD4665
:1026800080BD80B582B000AF78607B681B681B6935
:1026900003F00203022B22D17B681B68DB6803F086
:1026A0000203022B1BD17B681B686FF002021A61C8
:1026B0007B6801221A777B681B689B6903F0030320
:1026C000002B03D0786800F06CFA05E0786800F021
:1026D0005EFA786800F06FFA7B6800221A777B68F0
:1026E0001B681B6903F00403042B22D17B681B6861
:1026F000DB6803F00403042B1BD17B681B686FF0BD
:1027000004021A617B6802221A777B681B689B6946
:1027100003F44073002B03D0786800F042FA05E020
:10272000786800F034FA786800F045FA7B68002297
:102730001A777B681B681B6903F00803082B22D1FA
:102740007B681B68DB6803F00803082B1BD17B68E0
:102750001B686FF008021A617B6804221A777B6895
:102760001B68DB6903F00303002B03D0786800F0DB
:1027700018FA05E0786800F00AFA786800F01BFAA9
:102780007B6800221A777B681B681B6903F01003C3
:10279000102B22D17B681B68DB6803F01003102B21
:1027A0001BD17B681B686FF010021A617B680822DE
:1027B0001A777B681B68DB6903F44073002B03D036
:1027C000786800F0EEF905E0786800F0E0F97868E4
:1027D00000F0F1F97B6800221A777B681B681B699F
:1027E00003F00103012B0ED17B681B68DB6803F04B
:1027F0000103012B07D17B681B686FF001021A618E
:10280000786801F0ADF87B681B681B6903F08003F2
:10281000802B0ED17B681B68DB6803F08003802B64
:1028200007D17B681B686FF080021A61786800F03E
:1028300035FD7B681B681B6903F04003402B0ED1FC
:102840007B681B68DB6803F04003402B07D17B6883
:102850001B686FF040021A61786800F0B6F97B6877
:102860001B681B6903F02003202B0ED17B681B68BB
:10287000DB6803F02003202B07D17B681B686FF017
:1028800020021A61786800F0FFFC00BF0837BD46DF
:1028900080BD000080B584B000AFF860B9607A6098
:1028A000FB6893F83C30012B01D10223B4E0FB68B4
:1028B000012283F83C20FB68022283F83D207B68DC
:1028C0000C2B00F29F8001A252F823F0012900088E
:1028D000052A0008052A0008052A000841290008E1
:1028E000052A0008052A0008052A0008832900088F
:1028F000052A0008052A0008052A0008C32900083F
:10290000FB681B68B968184600F00AFAFB681B6888
:102910009A69FB681B6842F008029A61FB681B68B1
:102920009A69FB681B6822F004029A61FB681B68C5
:102930009969BB681A69FB681B680A439A6162E07F
:10294000FB681B68B968184600F05AFAFB681B68F8
:102950009A69FB681B6842F400629A61FB681B6815
:102960009A69FB681B6822F480629A61FB681B68A5
:102970009969BB681B691A02FB681B680A439A6164
:1029800041E0FB681B68B968184600F0AFFAFB68C5
:102990001B68DA69FB681B6842F00802DA61FB68B1
:1029A0001B68DA69FB681B6822F00402DA61FB68C5
:1029B0001B68D969BB681A69FB681B680A43DA613E
:1029C00021E0FB681B68B968184600F003FBFB6850
:1029D0001B68DA69FB681B6842F40062DA61FB6815
:1029E0001B68DA69FB681B6822F48062DA61FB68A5
:1029F0001B68D969BB681B691A02FB681B680A431C
:102A0000DA6100E000BFFB68012283F83D20FB682B
:102A1000002283F83C20002318461037BD4680BDB5
:102A200080B584B000AF786039607B6893F83C3043
:102A3000012B01D10223A6E07B68012283F83C2010
:102A40007B68022283F83D207B681B689B68FB60E3
:102A5000FB6823F07703FB60FB6823F47F43FB6094
:102A60007B681B68FA689A603B681B68402B67D0DC
:102A7000402B0BD8102B73D0102B02D8002B6FD00B
:102A800078E0202B6CD0302B6AD073E0702B0DD007
:102A9000702B04D8502B33D0602B41D06AE0B3F5B3
:102AA000805F66D0B3F5005F17D063E07B6818687D
:102AB0003B6899683B685A683B68DB6800F05AFBE2
:102AC0007B681B689B68FB60FB6843F07703FB60D7
:102AD0007B681B68FA689A604CE07B6818683B6802
:102AE00099683B685A683B68DB6800F043FB7B6889
:102AF0001B689A687B681B6842F480429A6039E0E0
:102B00007B6818683B6859683B68DB681A4600F0C8
:102B1000B7FA7B681B685021184600F010FB29E0CB
:102B20007B6818683B6859683B68DB681A4600F0A8
:102B3000D6FA7B681B686021184600F000FB19E09C
:102B40007B6818683B6859683B68DB681A4600F088
:102B500097FA7B681B684021184600F0F0FA09E0FC
:102B60007B681A683B681B681946104600F0E7FA54
:102B700000E000BF7B68012283F83D207B680022D3
:102B800083F83C20002318461037BD4680BD80B432
:102B900083B000AF786000BF0C37BD465DF8047BA2
:102BA000704780B483B000AF786000BF0C37BD467B
:102BB0005DF8047B704780B483B000AF786000BFDD
:102BC0000C37BD465DF8047B704780B483B000AF1E
:102BD000786000BF0C37BD465DF8047B704700008D
:102BE00080B485B000AF786039607B681B68FB609B
:102BF0007B68404A934213D07B68B3F1804F0FD07B
:102C00007B683D4A93420BD07B683C4A934207D095
:102C10007B683B4A934203D07B683A4A934208D18F
:102C2000FB6823F07003FB603B685B68FA68134342
:102C3000FB607B682F4A93422BD07B68B3F1804FB7
:102C400027D07B682C4A934223D07B682B4A93423F
:102C50001FD07B682A4A93421BD07B68294A934243
:102C600017D07B68284A934213D07B68274A934247
:102C70000FD07B68264A93420BD07B68254A93424B
:102C800007D07B68244A934203D07B68234A93424F
:102C900008D1FB6823F44073FB603B68DB68FA688B
:102CA0001343FB60FB6823F080023B685B691343BE
:102CB000FB607B68FA681A603B689A687B68DA6236
:102CC0003B681A687B689A627B680A4A934203D021
:102CD0007B680C4A934203D13B681A697B681A638C
:102CE0007B6801225A6100BF1437BD465DF8047B42
:102CF000704700BF00000140000400400008004091
:102D0000000C00400004014000400140004401402C
:102D10000048014000180040001C00400020004016
:102D200080B487B000AF786039607B681B6A23F09D
:102D300001027B681A627B681B6A7B617B685B6847
:102D40003B617B689B69FB60FB6823F07003FB6061
:102D5000FB6823F00303FB603B681B68FA681343BE
:102D6000FB607B6923F002037B613B689B687A69A7
:102D700013437B617B68204A934203D07B681F4AE0
:102D800093420CD17B6923F008037B613B68DB68CD
:102D90007A6913437B617B6923F004037B617B6861
:102DA000154A934203D07B68144A934211D13B6980
:102DB00023F480733B613B6923F400733B613B6800
:102DC0005B693A6913433B613B689B693A6913430A
:102DD0003B617B683A695A607B68FA689A613B6834
:102DE0005A687B685A637B687A691A6200BF1C372D
:102DF000BD465DF8047B70470000014000040140BF
:102E000080B487B000AF786039607B681B6A23F0BC
:102E100010027B681A627B681B6A7B617B685B6857
:102E20003B617B689B69FB60FB6823F4E043FB60CC
:102E3000FB6823F44073FB603B681B681B02FA6865
:102E40001343FB607B6923F020037B613B689B6835
:102E50001B017A6913437B617B68224A934203D04A
:102E60007B68214A93420DD17B6923F080037B610B
:102E70003B68DB681B017A6913437B617B6923F044
:102E800040037B617B68174A934203D07B68164AF4
:102E9000934213D13B6923F480633B613B6923F484
:102EA00000633B613B685B699B003A6913433B618C
:102EB0003B689B699B003A6913433B617B683A69B5
:102EC0005A607B68FA689A613B685A687B689A63C3
:102ED0007B687A691A6200BF1C37BD465DF8047BC7
:102EE000704700BF000001400004014080B487B07B
:102EF00000AF786039607B681B6A23F480727B685E
:102F00001A627B681B6A7B617B685B683B617B68DC
:102F1000DB69FB60FB6823F07003FB60FB6823F058
:102F20000303FB603B681B68FA681343FB607B6923
:102F300023F400737B613B689B681B027A6913432F
:102F40007B617B68214A934203D07B68204A93428D
:102F50000DD17B6923F400637B613B68DB681B0256
:102F60007A6913437B617B6923F480637B617B68AF
:102F7000164A934203D07B68154A934213D13B69AA
:102F800023F480533B613B6923F400533B613B686E
:102F90005B691B013A6913433B613B689B691B01F9
:102FA0003A6913433B617B683A695A607B68FA6807
:102FB000DA613B685A687B68DA637B687A691A620F
:102FC00000BF1C37BD465DF8047B70470000014020
:102FD0000004014080B487B000AF786039607B683E
:102FE0001B6A23F480527B681A627B681B6A3B6110
:102FF0007B685B687B617B68DB69FB60FB6823F453
:10300000E043FB60FB6823F44073FB603B681B6894
:103010001B02FA681343FB603B6923F400533B61D6
:103020003B689B681B033A6913433B617B68124A08
:10303000934203D07B68114A934209D17B6923F400
:1030400080437B613B685B699B017A6913437B61C9
:103050007B687A695A607B68FA68DA613B685A680B
:103060007B681A647B683A691A6200BF1C37BD46E8
:103070005DF8047B704700BF000001400004014080
:1030800080B487B000AFF860B9607A60FB681B6AF3
:103090007B61FB681B6A23F00102FB681A62FB6814
:1030A0009B693B613B6923F0F0033B617B681B013B
:1030B0003A6913433B617B6923F00A037B617A69B8
:1030C000BB6813437B61FB683A699A61FB687A6964
:1030D0001A6200BF1C37BD465DF8047B704780B4A0
:1030E00087B000AFF860B9607A60FB681B6A23F0B4
:1030F0001002FB681A62FB689B697B61FB681B6AB4
:103100003B617B6923F470437B617B681B037A69B5
:1031100013437B613B6923F0A0033B61BB681B0148
:103120003A6913433B61FB687A699A61FB683A69C3
:103130001A6200BF1C37BD465DF8047B704780B43F
:1031400085B000AF786039607B689B68FB60FB6886
:1031500023F07003FB603A68FB68134343F00703F6
:10316000FB607B68FA689A6000BF1437BD465DF863
:10317000047B704780B487B000AFF860B9607A60B4
:103180003B60FB689B687B617B6923F47F437B61C9
:103190003B681A027B681A43BB6813437A6913437E
:1031A0007B61FB687A699A6000BF1C37BD465DF899
:1031B000047B704780B487B000AFF860B9607A6074
:1031C000BB6803F01F03012202FA03F37B61FB6873
:1031D0001A6A7B69DB431A40FB681A62FB681A6A49
:1031E000BB6803F01F03796801FA03F31A43FB6815
:1031F0001A6200BF1C37BD465DF8047B704780B47F
:1032000085B000AF786039607B6893F83C30012B63
:1032100001D1022332E07B68012283F83C207B68E5
:10322000022283F83D207B681B685B68FB607B683B
:103230001B689B68BB60FB6823F07003FB603B6806
:103240001B68FA681343FB60BB6823F08003BB6014
:103250003B685B68BA681343BB607B681B68FA68AD
:103260005A607B681B68BA689A607B68012283F8A1
:103270003D207B68002283F83C2000231846143749
:10328000BD465DF8047B704780B483B000AF7860C2
:1032900000BF0C37BD465DF8047B704780B483B037
:1032A00000AF786000BF0C37BD465DF8047B704707
:1032B00080B582B000AF78607B68002B01D101231C
:1032C0003FE07B6893F83930DBB2002B06D17B6896
:1032D000002283F83820786801F0B2FA7B68242253
:1032E00083F839207B681B68DA687B681B6822F4E6
:1032F0000052DA60786800F00BF97B681B681A6985
:103300007B681B6822F490421A617B681B685A69CB
:103310007B681B6822F02A025A617B681B68DA68A6
:103320007B681B6842F40052DA607B680022DA6333
:103330007B68202283F839207B68202283F83A209A
:10334000002318460837BD4680BD80B588B002AF5F
:10335000F860B9603B601346FB8000237B61FB682B
:1033600093F83930DBB2202B40F08380BB68002B10
:1033700002D0FB88002B01D101237BE0FB6893F88E
:103380003830012B01D1022374E0FB68012283F85D
:103390003820FB680022DA63FB68212283F8392099
:1033A000FDF76AFD7861FB68FA889A84FB68FA8801
:1033B000DA8442E0FB68DB8C9BB2013B9AB2FB688B
:1033C000DA84FB689B68B3F5805F22D13B68009389
:1033D0007B6900228021F86800F050F80346002B3A
:1033E00001D0032346E0BB683B613B691B881A465A
:1033F000FB681B68C2F308025A60FB681B69002B5C
:1034000003D1BB680233BB6017E0BB680133BB600C
:1034100013E03B6800937B6900228021F86800F08C
:103420002DF80346002B01D0032323E0BB685A1C70
:10343000BA601A78FB681B685A60FB68DB8C9BB229
:10344000002BB7D13B6800937B6900224021F868CC
:1034500000F014F80346002B01D003230AE0FB68B8
:10346000202283F83920FB68002283F838200023CB
:1034700000E0022318461837BD4680BD80B584B0F1
:1034800000AFF860B9603B601346FB712CE0BB698C
:10349000B3F1FF3F28D0BB69002B07D0FDF7ECFC50
:1034A00002463B68D31ABA699A421DD2FB681B6870
:1034B000DA68FB681B6822F4D072DA60FB681B686C
:1034C0005A69FB681B6822F001025A61FB682022DE
:1034D00083F83920FB68202283F83A20FB68002219
:1034E00083F8382003230FE0FB681B681A68BB6869
:1034F0001340BA689A420CBF01230023DBB21A467C
:10350000FB799A42C3D0002318461037BD4680BDD0
:10351000B0B584B000AF78607B681B681B6923F48A
:1035200040517B68DA687B681B680A431A617B68D4
:103530009A687B681B691A437B685B691A437B68DE
:10354000DB691343FB607B681B68DB6823F416436D
:1035500023F00C037A681268F9680B43D3607B6828
:103560001B685B6923F440717B689A697B681B6800
:103570000A435A617B68DB69B3F5004F40F0E48091
:103580007B681B68AB4A934204D07B681B68AA4ADD
:1035900093426CD1FEF714FF024613469B0013447E
:1035A0009A001A447B685B685B00B2FBF3F3A34AA2
:1035B000A2FB03235B091C01FEF702FF0246134630
:1035C0009B0013449A001A447B685B685B00B2FB63
:1035D000F3F5FEF7F5FE024613469B0013449A00EE
:1035E0001A447B685B685B00B2FBF3F3934AA2FB6F
:1035F00003235B09642202FB03F3EB1ADB00323383
:103600008E4AA2FB03235B095B0003F4F8731C449E
:10361000FEF7D6FE024613469B0013449A001A4456
:103620007B685B685B00B2FBF3F5FEF7C9FE024600
:1036300013469B0013449A001A447B685B685B0046
:10364000B2FBF3F37D4AA2FB03235B09642202FB76
:1036500003F3EB1ADB003233784AA2FB03235B0946
:1036600003F007027B681B6822449A6054E1FEF76E
:1036700093FE024613469B0013449A001A447B684B
:103680005B685B00B2FBF3F36C4AA2FB03235B09AC
:103690001C01FEF781FE024613469B0013449A006C
:1036A0001A447B685B685B00B2FBF3F5FEF774FEBF
:1036B000024613469B0013449A001A447B685B68D9
:1036C0005B00B2FBF3F35D4AA2FB03235B096422B8
:1036D00002FB03F3EB1ADB003233584AA2FB03234D
:1036E0005B095B0003F4F8731C44FEF755FE0246C9
:1036F00013469B0013449A001A447B685B685B0086
:10370000B2FBF3F5FEF748FE024613469B00134456
:103710009A001A447B685B685B00B2FBF3F3474A8C
:10372000A2FB03235B09642202FB03F3EB1ADB0019
:103730003233424AA2FB03235B0903F007027B6892
:103740001B6822449A60E7E07B681B68394A934211
:1037500004D07B681B68384A934271D1FEF730FE73
:10376000024613469B0013449A001A447B685B6828
:103770009B00B2FBF3F3314AA2FB03235B091C015C
:10378000FEF71EFE024613469B0013449A001A449D
:103790007B685B689B00B2FBF3F5FEF711FE024607
:1037A00013469B0013449A001A447B685B689B0095
:1037B000B2FBF3F3214AA2FB03235B09642202FB61
:1037C00003F3EB1A1B0132331C4AA2FB03235B09F0
:1037D00003F0F0031C44FEF7F3FD024613469B0082
:1037E00013449A001A447B685B689B00B2FBF3F5B4
:1037F000FEF7E6FD024613469B0013449A001A4466
:103800007B685B689B00B2FBF3F30C4AA2FB0323CB
:103810005B09642202FB03F3EB1A1B013233074AF4
:10382000A2FB03235B0903F00F027B681B682244A1
:103830009A6071E000100140001401401F85EB51B7
:10384000FEF7AAFD024613469B0013449A001A4451
:103850007B685B689B00B2FBF3F3314AA2FB032356
:103860005B091C01FEF798FD024613469B001344BA
:103870009A001A447B685B689B00B2FBF3F5FEF785
:103880008BFD024613469B0013449A001A447B6842
:103890005B689B00B2FBF3F3214AA2FB03235B09A5
:1038A000642202FB03F3EB1A1B0132331C4AA2FB16
:1038B00003235B0903F0F0031C44FEF76DFD024691
:1038C00013469B0013449A001A447B685B689B0074
:1038D000B2FBF3F5FEF760FD024613469B0013446E
:1038E0009A001A447B685B689B00B2FBF3F30C4AB6
:1038F000A2FB03235B09642202FB03F3EB1A1B0107
:103900003233074AA2FB03235B0903F00F027B68F3
:103910001B6822449A60FFE700BF1037BD46B0BD68
:103920001F85EB5180B584B000AF78607B680A2BAF
:1039300008D10D23FB6007F10C0101230122074888
:10394000FFF703FD391D012301220448FFF7FDFCA9
:10395000002318461037BD4680BD00BFCC010020B3
:10396000B0B582B000AF78607B689D4A934240F06A
:1039700028819C4B5B6A07EE903AF8EE677A9A4B87
:10398000C3ED007A994B5B6A07EE903AF8EE677ADE
:10399000974BC3ED007A944BD3ED007A9FED957A67
:1039A000F4EEC77AF1EE10FA09DD8F4BD3ED007A11
:1039B0009FED917A77EEC77A8B4BC3ED007A8C4BF3
:1039C000D3ED007A9FED8B7AF4EEC77AF1EE10FA20
:1039D00009DD874BD3ED007A9FED877A77EEC77AC2
:1039E000834BC3ED007A824BD3ED007AF1EE677A18
:1039F0007F4BC3ED007A814B1B681846FCF79CFD9A
:103A000004460D46784B1B681846FCF795FD70A3DD
:103A1000D3E90023FCF7E8FD02460B462046294681
:103A2000FCF72CFC03460C4618462146FCF7EEFF3B
:103A30000246724B1A60724B1B681846FCF77CFDFD
:103A400004460D466A4B1B681846FCF775FD60A3DB
:103A5000D3E90023FCF7C8FD02460B462046294661
:103A6000FCF70CFC03460C4618462146FCF7CEFF3B
:103A70000246634B1A605C4B1B681846FCF75CFD02
:103A800053A3D3E90023FCF7AFFD03460C461846C9
:103A9000214651A3D3E90023FCF7D0FE03460C4690
:103AA00018462146FCF7B2FF0246564B1A60504BAF
:103AB0001B681846FCF740FD45A3D3E90023FCF73B
:103AC00093FD03460C461846214643A3D3E9002341
:103AD000FCF7B4FE03460C4618462146FCF796FF59
:103AE0000246494B1A603F4B00225A623F4B00226C
:103AF0005A62464B1B680133444A1360444B1B68AF
:103B00000133434A1360414B1B68002B03F0010350
:103B1000B8BF5B423D4A13603C4B1B68002B02D090
:103B2000012B27D04DE001224FF400713948FEF7F8
:103B300037F80021384800F089FC0246374B1A60FC
:103B400000224FF400713348FEF72AF801224FF4A7
:103B500080713348FEF724F801212F4800F076FCED
:103B60000246304B1A6000224FF480712C48FEF759
:103B700017F826E001224FF480412648FEF710F89E
:103B80000221254800F062FC0246274B1A60002201
:103B90004FF480411F48FEF703F801224FF4004123
:103BA0001C48FDF7FDFF03211B4800F04FFC0246B7
:103BB0001E4B1A6000224FF400411648FDF7F0FF3B
:103BC00000BF00BF0837BD46B0BD00BFAFF30080E7
:103BD0003A79456D734D543FFCA9F1D24D62503F87
:103BE0000C02002000080040980000200004014062
:103BF0008C00002000401C4700FF7F479C000020F5
:103C000090000020A000002094000020A4000020CC
:103C1000A80000200008024080010020940200203B
:103C2000000002404C020020C80100209002002049
:103C300080B592B002AFFDF7B9F800F0B1F800F02E
:103C40006BFB00F03FFB00F013F900F059FA00F0B5
:103C5000E1FA00F05FF900F0A7FA00F0DBF93F4865
:103C600001F01CF80023FB633D4B1B689B6800219F
:103C7000184601F01BF83C213A48FEF7CBFC3C21EA
:103C80003948FEF7C7FC0023BB6360237B60002339
:103C9000FB6000237B613548FEF7D1FB344BD3ED4D
:103CA000007AB2EE047A67EE877AFDEEE77A17EED5
:103CB000903A7B632F4BD3ED007AB2EE047A67EE35
:103CC000877AFDEEE77A17EE903A3B632A4BD3ED05
:103CD000007AB2EE047A67EE877AFDEEE77A17EEA5
:103CE000903AFB62254BD3ED007AB2EE047A67EE90
:103CF000877AFDEEE77A17EE903ABB62204BD3ED60
:103D0000007AB2EE047A67EE877AFDEEE77A17EE74
:103D1000903A7B621B4BD3ED007AB2EE047A67EEE9
:103D2000877AFDEEE77A17EE903A3B620120FDF7C5
:103D3000AFF8154B1B68642BB0DD144B1968144B9E
:103D40001A68144B1868144B1B68009303461348F9
:103D500000F030FF0C4B00221A609FE7D85B000890
:103D60000C00002000010020C00000200C020020F8
:103D70008C00002098000020900000209C00002073
:103D800094000020A0000020A80000209402002041
:103D90004C020020C801002090020020EC5B0008CB
:103DA00080B594B000AF07F12003302200211846FF
:103DB00000F0F8FE07F10C0300221A605A609A60C6
:103DC000DA601A610023BB60274B1B6C264A43F064
:103DD00080531364244B1B6C03F08053BB60BB689F
:103DE00000237B60214B1B68204A43F4804313600F
:103DF0001E4B1B6803F480437B607B6802233B629D
:103E00000123FB6210233B630223BB630023FB639C
:103E100008233B6440237B640223BB640423FB64CC
:103E200007F120031846FDF7D5FE0346002B01D00D
:103E300000F035FB0F23FB6002233B6100237B6115
:103E40004FF48053BB610023FB6107F10C03022197
:103E50001846FEF701F90346002B01D000F01FFBC6
:103E600000BF5037BD4680BD0038024000700040A2
:103E700080B584B000AF3B4600221A605A609A6059
:103E8000DA60214B214A1A601F4B00225A601E4BF8
:103E900000229A601C4B00221A611B4B00221A76EA
:103EA000194B002283F82020174B0022DA62164BB0
:103EB000174A9A62144B0022DA60134B0122DA612E
:103EC000114B002283F830200F4B01225A610E481B
:103ED000FDF700F80346002B01D000F0E0FA0023C4
:103EE0003B6001237B600023BB603B4619460648CC
:103EF000FDF78CF90346002B01D000F0D0FA00BF8B
:103F00001037BD4680BD00BF800100200020014069
:103F10000100000F80B58EB000AF07F1280300222A
:103F20001A605A609A60DA6007F1200300221A6072
:103F30005A603B1D00221A605A609A60DA601A616A
:103F40005A619A61324B4FF080421A60304B002226
:103F50005A602F4B00229A602D4B40F2E732DA6014
:103F60002B4B00221A612A4B00229A612848FEF747
:103F70003BFA0346002B01D000F091FA4FF4805336
:103F8000BB6207F1280319462148FEF749FD0346A5
:103F9000002B01D000F083FA1D48FEF774FA0346A7
:103FA000002B01D000F07BFA00233B6200237B62F0
:103FB00007F1200319461648FFF721F90346002BA5
:103FC00001D000F06CFA60237B600023BB6000230B
:103FD000FB6000237B613B1D002219460C48FEF765
:103FE00059FC0346002B01D000F059FA3B1D0C226E
:103FF00019460748FEF74EFC0346002B01D000F09F
:104000004EFA034800F09EFB00BF3837BD4680BD26
:104010005002002080B58EB000AF07F128030022C7
:104020001A605A609A60DA6007F1200300221A6071
:104030005A603B1D00221A605A609A60DA601A6169
:104040005A619A612C4B2D4A1A602B4B3F225A60C1
:10405000294B00229A60284B0022DA60264B00226E
:104060001A61254B00229A612348FEF7BDF90346E9
:10407000002B01D000F013FA4FF48053BB6207F11C
:10408000280319461C48FEF7CBFC0346002B01D041
:1040900000F005FA1848FEF7F6F90346002B01D0A8
:1040A00000F0FDF900233B6200237B6207F120034F
:1040B00019461148FFF7A3F80346002B01D000F082
:1040C000EEF960237B600023BB600023FB600023CC
:1040D0007B613B1D042219460748FEF7DBFB0346C4
:1040E000002B01D000F0DBF9034800F02BFB00BFF0
:1040F0003837BD4680BD00BF4001002000040040AD
:1041000080B58CB000AF07F10C03242200211846C3
:1041100000F048FD3B1D00221A605A60204B214AE6
:104120001A601F4B00225A601D4B00229A601C4BE4
:104130004FF6FF72DA601A4B00221A61184B002208
:104140009A610323FB6000233B6101237B61002311
:10415000BB610023FB6100233B6201237B620023E0
:10416000BB620023FB6207F10C0319460C48FEF703
:10417000BFF90346002B01D000F091F900237B60CA
:104180000023BB603B1D19460548FFF738F803467E
:10419000002B01D000F083F900BF3037BD4680BD51
:1041A000000100200008004080B582B000AF3B460F
:1041B00000221A605A60154B154A1A60134B41F6DB
:1041C000FF025A60114B00229A60104B0922DA60FC
:1041D0000E4B00229A610D48FEF706F90346002BAC
:1041E00001D000F05CF900233B6000237B603B467C
:1041F00019460648FFF703F80346002B01D000F0EC
:104200004EF900BF0837BD4680BD00BF0C0200203C
:104210000010004080B58CB000AF07F10C032422E1
:104220000021184600F0BEFC3B1D00221A605A60B7
:10423000224B234A1A60214B00225A601F4B002256
:104240009A601E4B4FF6FF72DA601C4B00221A6117
:104250001A4B00225A61194B00229A610323FB601A
:1042600000233B6101237B610023BB610023FB61D1
:1042700000233B6201237B620023BB620023FB62BD
:1042800007F10C0319460D48FEF732F90346002BDF
:1042900001D000F004F900237B600023BB603B1DCC
:1042A00019460648FEF7ABFF0346002B01D000F08D
:1042B000F6F800BF3037BD4680BD00BFC00000200B
:1042C0000004014080B500AF114B124A1A60104B38
:1042D0004FF416525A600E4B00229A600C4B00228B
:1042E000DA600B4B00221A61094B0C225A61084B11
:1042F00000229A61064B0022DA610548FEF7D8FFDA
:104300000346002B01D000F0CAF800BF80BD00BFFB
:10431000CC0100200010014080B588B000AF07F14B
:104320000C0300221A605A609A60DA601A61002356
:10433000BB60424B1B6B414A43F0040313633F4B8A
:104340001B6B03F00403BB60BB6800237B603B4B2B
:104350001B6B3A4A43F001031363384B1B6B03F0AA
:1043600001037B607B6800233B60344B1B6B334A4B
:1043700043F002031363314B1B6B03F002033B60FA
:104380003B6800224EF23C212D48FDF709FC00223B
:104390004FF4E8712B48FDF703FC002242F2037151
:1043A0002948FDF7FDFB4EF23C23FB6001233B61F6
:1043B00000237B610023BB6107F10C0319462048F1
:1043C000FDF754FA4FF4E873FB6001233B610023CF
:1043D0007B610023BB6107F10C0319461948FDF707
:1043E00045FA42F20373FB6001233B6100237B61CA
:1043F0000023BB6107F10C0319461348FDF736FA99
:104400004FF48053FB6000233B6100237B6107F185
:104410000C0319460C48FDF729FA4FF40063FB60C2
:1044200000233B6100237B6107F10C03194605481B
:10443000FDF71CFA00BF2037BD4680BD00380240A2
:1044400000080240000002400004024080B586B02F
:1044500000AF7860396007F1080300221A605A60E3
:104460009A60DA603B68BB600123FB6000233B611C
:1044700000237B6107F1080319467868FCF7C6FE44
:104480007868FCF76BFD64217868FCF72DFE78688E
:10449000FCF7AEFE034618461837BD4680BD80B413
:1044A00000AF00BFBD465DF8047B704780B483B0A9
:1044B00000AF00237B60104B5B6C0F4A43F48043DA
:1044C00053640D4B5B6C03F480437B607B6800237B
:1044D0003B60094B1B6C084A43F080531364064B46
:1044E0001B6C03F080533B603B6800BF0C37BD463C
:1044F0005DF8047B704700BF0038024080B58AB089
:1045000000AF786007F1140300221A605A609A60C5
:10451000DA601A617B681B68174A934227D100232F
:104520003B61164B5B6C154A43F480735364134B29
:104530005B6C03F480733B613B690023FB600F4BB2
:104540001B6B0E4A43F0010313630C4B1B6B03F010
:104550000103FB60FB680F237B610323BB61002326
:10456000FB6107F1140319460548FDF77FF900BF09
:104570002837BD4680BD00BF002001400038024002
:104580000000024080B586B000AF78607B681B6891
:10459000B3F1804F0ED100237B61244B1B6C234A67
:1045A00043F001031364214B1B6C03F001037B6197
:1045B0007B6936E07B681B681D4A934216D1002355
:1045C0003B611A4B1B6C194A43F002031364174BEF
:1045D0001B6C03F002033B613B69002200211D209C
:1045E000FDF70DF91D20FDF726F91AE07B681B6821
:1045F000104A934215D10023FB600C4B1B6C0B4AF5
:1046000043F010031364094B1B6C03F01003FB60B1
:10461000FB68002200213620FDF7F1F83620FDF777
:104620000AF900BF1837BD4680BD00BF0038024000
:10463000000400400010004080B58CB000AF7860EE
:1046400007F11C0300221A605A609A60DA601A614E
:104650007B681B68364A934234D10023BB61354BDB
:104660001B6C344A43F004031364324B1B6C03F09D
:104670000403BB61BB6900237B612E4B1B6B2D4A7E
:1046800043F0020313632B4B1B6B03F002037B61AC
:104690007B69C023FB6102233B6200237B62002312
:1046A000BB620223FB6207F11C0319462248FDF797
:1046B000DDF8002200211E20FDF7A1F81E20FDF7E5
:1046C000BAF830E07B681B681C4A93422BD1002368
:1046D0003B61184B5B6C174A43F002035364154B64
:1046E0005B6C03F002033B613B690023FB60114BF1
:1046F0001B6B104A43F0040313630E4B1B6B03F058
:104700000403FB60FB68C023FB6102233B620023C0
:104710007B620023BB620323FB6207F11C03194683
:104720000748FDF7A3F800BF3037BD4680BD00BF86
:10473000000800400038024000040240000401402C
:104740000008024080B58AB000AF786007F114031A
:1047500000221A605A609A60DA601A617B681B68EE
:10476000B3F1804F3DD100233B61314B1B6B304A8D
:1047700043F0010313632E4B1B6B03F001033B61FA
:104780003B690023FB602A4B1B6B294A43F0020361
:104790001363274B1B6B03F00203FB60FB682023B2
:1047A0007B610223BB610023FB6100233B62012389
:1047B0007B6207F1140319461E48FDF757F84FF4C2
:1047C00000637B610223BB610023FB6100233B622A
:1047D00001237B6207F1140319461748FDF746F8D9
:1047E00022E07B681B68154A93421DD10023BB6001
:1047F0000F4B1B6B0E4A43F0020313630C4B1B6BF6
:1048000003F00203BB60BB6820237B610223BB6112
:104810000023FB6100233B6202237B6207F1140348
:1048200019460548FDF722F800BF2837BD4680BD70
:104830000038024000000240000402400004004032
:1048400080B58AB000AF786007F1140300221A60C7
:104850005A609A60DA601A617B681B68194A934251
:104860002CD100233B61184B5B6C174A43F01003BB
:104870005364154B5B6C03F010033B613B690023F1
:10488000FB60114B1B6B104A43F0010313630E4B8B
:104890001B6B03F00103FB60FB684FF4C0637B619B
:1048A0000223BB610123FB6103233B6207237B627D
:1048B00007F1140319460548FCF7D8FF00BF283755
:1048C000BD4680BD0010014000380240000002409B
:1048D00080B400AF00BFBD465DF8047B704780B474
:1048E00000AFFEE780B400AFFEE780B400AFFEE7A4
:1048F00080B400AFFEE780B400AF00BFBD465DF8F6
:10490000047B704780B400AF00BFBD465DF8047BF8
:10491000704780B400AF00BFBD465DF8047B7047B0
:1049200080B500AFFCF794FA00BF80BD80B400AF43
:1049300000BFBD465DF8047B704780B400AF00BF88
:10494000BD465DF8047B704780B500AF0248FDF7B7
:1049500098FE00BF80BD00BF0C02002080B586B06D
:1049600000AFF860B9607A6000237B610AE0AFF3C2
:1049700000800146BB685A1CBA60CAB21A707B69D3
:1049800001337B617A697B689A42F0DB7B68184669
:104990001837BD4680BD80B586B000AFF860B960FD
:1049A0007A6000237B6109E0BB685A1CBA601B78FF
:1049B0001846FEF7B7FF7B6901337B617A697B6834
:1049C0009A42F1DB7B6818461837BD4680BD80B43B
:1049D00083B000AF78604FF0FF3318460C37BD4608
:1049E0005DF8047B704780B483B000AF78603960B5
:1049F0003B684FF400525A60002318460C37BD46FE
:104A00005DF8047B704780B483B000AF7860012309
:104A100018460C37BD465DF8047B704780B485B0FE
:104A200000AFF860B9607A60002318461437BD46BD
:104A30005DF8047B7047000080B584B000AF7860FB
:104A4000114B1B68002B02D10F4B104A1A600E4B02
:104A50001B68FB600C4B1A687B6813446A469342E0
:104A600007D900F075F802460C2313604FF0FF33AE
:104A700006E0054B1A687B681344034A1360FB6821
:104A800018461037BD4680BDAC000020A0020020B3
:104A900080B400AF164BD3F88830154A43F4700346
:104AA000C2F88830134B1B68124A43F001031360AD
:104AB000104B00229A600F4B1B680E4A23F0847340
:104AC00023F4803313600B4B0B4A5A60094B1B686D
:104AD000084A23F480231360064B0022DA60044B5B
:104AE0004FF000629A6000BFBD465DF8047B7047DE
:104AF00000ED00E00038024010300024DFF834D030
:104B0000002103E00C4B5B58435004310B480C4B25
:104B100042189A42F6D30B4A02E0002342F8043BC3
:104B2000094B9A42F9D3FFF7B3FF00F017F8FFF7EC
:104B30007FF87047FFFF0120CC5C000800000020D8
:104B400070000020700000209C020020FEE70000A2
:104B5000014B1868704700BF0C00002070B50D4E67
:104B60000D4CA41BA4100025A54209D10B4E0C4CE2
:104B700001F026F8A41BA4100025A54205D170BDA4
:104B800056F8253098470135EEE756F82530984716
:104B90000135F2E7C45C0008C45C0008C45C00088E
:104BA000C85C000802440346934200D1704703F8F2
:104BB000011BF9E70FB40A4B13B51C6824B1A369B4
:104BC00013B9204600F0D8FA05AB049AA168019306
:104BD000204600F099FC02B0BDE8104004B07047D8
:104BE0000C00002070B50E46054618B183690BB95C
:104BF00000F0C2FAAB69AC6813B9284600F0BCFA01
:104C0000234B9C4217D16C68A3891B071DD52369D0
:104C1000DBB1013EA36816F8011F013BA360E9B9AF
:104C2000002B2EDA22460A21284600F0F5F8013042
:104C300011D00A2011E0174B9C4201D1AC68E3E788
:104C4000154B9C4208BFEC68DEE72146284600F081
:104C500035F90028DDD04FF0FF3070BD002B04DAAD
:104C6000A2699A4206DC0A2904D023685A1C2260F1
:104C70001970CFE72246284600F0CEF80130C9D19E
:104C8000E9E723680A205A1C22601870E5E700BF94
:104C9000485C0008685C0008285C0008024B01467C
:104CA0001868FFF79FBF00BF0C00002000294FF4D9
:104CB00080630CBF0222002200F000B82DE9F74308
:104CC0001D46514B1E6804460F46904626B1B369F7
:104CD00013B9304600F050FA4C4B9C4252D17468E4
:104CE000B8F1020F06D0B8F1010F00F28980002D53
:104CF000C0F286802146304600F0D4F9616B41B1A4
:104D000004F14403994202D0304600F02BFB00230B
:104D100063630023A3616360A3891B0603D5216934
:104D2000304600F01FFBA38923F44A6323F00303FA
:104D3000B8F1020FA3815DD001AB6A46214630462F
:104D400000F0A4FAA3891843A0812DBB009D28463A
:104D500000F000FB074600284ED1DDF80090A94581
:104D60003CD14FF0FF30A38943F00203A38100231D
:104D7000A36004F14703236023610123636103B04F
:104D8000BDE8F083224B9C4201D1B468A8E7214BD7
:104D90009C4208BFF468A3E7002FD8D0B36913B9C9
:104DA000304600F0E9F9B8F1010F08BFA389276088
:104DB00004BF43F00103A381A38913F00800C4E9F1
:104DC00004751BD013F0010018BF6D424FF00003B3
:104DD0001DBFA360A5611846A560D0E7484600F056
:104DE000B9FA07460028BCD0A38943F08003A38109
:104DF0004D46D3E70020B6E7A946F5E7A060BEE739
:104E00004FF0FF30BBE700BF0C000020485C0008FB
:104E1000685C0008285C0008F8B50E461446054694
:104E200018B183690BB900F0A7F9214B9C422AD134
:104E30006C68A369A360A3891A072ED5236963B39D
:104E400023692068C01A6369F6B28342374604DCDE
:104E50002146284600F026F928BBA368013BA36041
:104E600023685A1C22601E7063690130834204D09B
:104E7000A389DB0719D50A2E17D12146284600F051
:104E800011F990B10FE00B4B9C4201D1AC68D0E717
:104E9000094B9C4208BFEC68CBE72146284600F04E
:104EA0000DF80028CCD04FF0FF373846F8BD00BFD2
:104EB000485C0008685C0008285C0008324B70B54C
:104EC0001D6806460C4625B1AB6913B9284600F0AB
:104ED00053F92E4B9C420FD16C68B4F90C309AB246
:104EE00015072CD4D00611D40922326043F04003B8
:104EF000A3814FF0FF303EE0254B9C4201D1AC68CE
:104F0000EBE7244B9C4208BFEC68E6E7510712D55B
:104F1000616B41B104F14403994202D0304600F084
:104F200021FA00236363A38923F02403A3810023D0
:104F3000636023692360A38943F00803A381236985
:104F40004BB9A38903F42073B3F5007F03D0214646
:104F5000304600F0BFF9A28912F001030CD0002303
:104F6000A36063695B42A361236953B9B4F90C3050
:104F700013F08000BAD170BD920758BF6369A36077
:104F8000F2E70020F7E700BF0C000020485C0008B3
:104F9000685C0008285C00088A892DE9F041054614
:104FA00010070C4658D44B68002B05DC0B6C002B0B
:104FB00002DC0020BDE8F081E66A002EF9D0002373
:104FC00012F480522F68216A2B6032D0606DA38961
:104FD0005A0705D56368C01A636B0BB1236CC01AFE
:104FE00000230246E66A216A2846B047431CA3898B
:104FF00006D129681D2948D8294ACA40D60744D570
:1050000000226260D9042269226004D5421C01D1C9
:105010002B6803B96065616B2F600029C9D004F16A
:105020004403994202D0284600F09CF900206063B6
:10503000C0E701232846B047411CC8D12B68002B8C
:10504000C5D01D2B01D0162B01D12F60B1E7A3894C
:1050500043F04003A381ADE70F69002FA9D0930768
:105060000E6808BF4B690F6018BF0023A6EB070846
:105070008B60B8F1000F9CDD43463A46216AA66A70
:105080002846B047002806DCA38943F04003A381EB
:105090004FF0FF308EE70744A8EB0008E9E700BFB8
:1050A0000100402038B50B6905460C46DBB118B14C
:1050B00083690BB900F060F80C4B9C4209D16C6815
:1050C000B4F90C307BB121462846BDE83840FFF7E3
:1050D00063BF074B9C4201D1AC68F1E7054B9C4292
:1050E00008BFEC68ECE7002038BD00BF485C000852
:1050F000685C0008285C0008002310B50446C0E97D
:105100000033836081814366C281C0E904338361D7
:10511000194608225C30FFF745FD054B6362054BDD
:10512000A362054BE362054B2462236310BD00BFFD
:10513000655A0008875A0008BF5A0008E35A000859
:10514000014900F085B800BFA550000870B54A1E9F
:10515000682555430E4605F1740100F051F90446E7
:1051600040B10021C0E900160C30A06005F16802D2
:10517000FFF718FD204670BD836910B5044633BBA8
:10518000C0E912330365124B124A1B6882629842CF
:1051900004BF0123836100F01FF86060204600F027
:1051A0001BF8A060204600F017F80022E060042100
:1051B0006068FFF7A1FF01220921A068FFF79CFFAB
:1051C00002221221E068FFF797FF0123A36110BDBF
:1051D000245C000841510008F8B51B4B1E68B369F8
:1051E000074613B93046FFF7C7FF4836D6E9013402
:1051F000013B03D5336833B13668F7E7B4F90C5097
:105200006DB16834F4E704213846FFF79FFF306042
:105210000028F1D10C233B6004462046F8BD0B4B1F
:105220006566C4E90055A560C4E90335C4E90555C0
:105230000822294604F15C00FFF7B4FCC4E90D55CF
:10524000C4E91255E9E700BF245C00080100FFFF34
:105250002DE9F8438046894600F14804002614B938
:105260003046BDE8F883D4E90175013F01D52468D3
:10527000F5E7AB89012B07D9B5F90E30013303D01F
:1052800029464046C84706436835EEE770B50E46E6
:10529000B1F90E10002996B014461D4607DA002316
:1052A0002B60B3891A0610D44FF480630EE06A466F
:1052B00000F03EFC0028F2DB019A02F47042A2F5F5
:1052C00000535A425A412A60EEE7402300202360EF
:1052D00016B070BD8B8973B59D0706460C4607D581
:1052E00004F14703236023610123636102B070BDB1
:1052F00001AB6A46FFF7CAFF00990546304600F049
:105300007FF848B9B4F90C309A05EFD423F00303C1
:1053100043F00203A381E3E70D4BB362A38920604E
:1053200043F08003A381009B6361019B20615BB11B
:10533000B4F90E10304600F00DFC28B1A38923F01B
:10534000030343F00103A381A3891D43A581CDE796
:1053500041510008024B0146186800F051B800BFE7
:105360000C00002038B50546002945D051F8043C12
:105370000C1F002BB8BFE41800F00EFC1F4A136886
:10538000104633B9636014602846BDE8384000F029
:1053900004BCA3420CD921686218934204BF1A6866
:1053A0005B68636004BF521822600460ECE7134638
:1053B0005A680AB1A242FAD919685818A0420BD10A
:1053C00020680144581882421960DDD11068526883
:1053D0005A6001441960D7E702D90C232B60D3E748
:1053E000206821188A4204BF11685268626004BFB5
:1053F000091821605C60C7E738BD00BFB00000201D
:1054000070B5CD1C25F0030508350C2D38BF0C25D3
:10541000002D064601DBA94203D90C23336000208E
:1054200070BD00F0B9FB214A1468214691B9204CA7
:1054300023681BB9304600F005FB20602946304642
:1054400000F000FB431C24D10C233360304600F0F5
:10545000A4FBE4E70B685B1B18D40B2B0FD90B6084
:10546000CD50CC18304600F098FB04F10B00231D02
:1054700020F00700C31AD3D05A42E250D0E78C4242
:105480004B6816BF636013600C46EBE70C46496837
:10549000CCE7C41C24F00304A04205D0211A3046F6
:1054A00000F0D0FA0130CFD02560DBE7B00000205B
:1054B000B40000209368013B002B10B4936008DA1D
:1054C0009469A34201DB0A2903D15DF8044BFFF77D
:1054D000A3BC1368581C1060197008465DF8044B93
:1054E0007047F8B506460F461446D518AC4201D1B0
:1054F000002007E03A4614F8011B3046FFF7DAFFB8
:10550000431CF3D1F8BD00002DE9F04F0C469DB0CF
:1055100017461D46064618B183690BB9FFF72CFEE6
:105520007C4B9C4258D17468A38918075ED52369C7
:10553000002B5BD00023099320238DF829303023E2
:105540008DF82A3003954FF0010BB846454615F803
:10555000013B0BB1252B54D1B8EB070A0BD05346B6
:105560003A4621463046FFF7BCFF013000F0C280CA
:10557000099B5344099398F80030002B00F0BA803F
:1055800000234FF0FF32CDE90523049307938DF8F4
:1055900053301A93A846052218F8011B5E48FAF703
:1055A00017FE049B78BBD90644BF20228DF85320F8
:1055B0001A0744BF2B228DF853202A782A2A2AD092
:1055C000079AA84600200A25414611F8013B303BC6
:1055D000092B69D960B324E0504B9C4201D1B468D7
:1055E000A2E74F4B9C4208BFF4689DE72146304636
:1055F000FFF764FC00289DD04FF0FF301DB0BDE8E0
:10560000F08FA846A2E7444A801A0BFA00F018432C
:1056100004904546BEE7039A111D12680391002AC3
:1056200001DB079204E0524243F002030792049325
:1056300098F800302E2B0ED198F801302A2B38D153
:10564000039B1A1D1B680392002BB8BF4FF0FF335A
:1056500008F102080593334D98F8001003222846FC
:10566000FAF7B6FD40B14023401B03FA00F0049B5B
:10567000034308F10108049398F800102A488DF8B4
:105680002810062208F10107FAF7A2FD002837D0FA
:10569000264B1BBB039B073323F0070308330393FD
:1056A000099B4B44099350E705FB023201208846D1
:1056B0008AE7002308F10108059319460A254046A8
:1056C00010F8012B303A092A03D9002BC3D00591D9
:1056D000C1E705FB012101238046F0E703AB0093FE
:1056E0002246134B04A93046AFF30080B0F1FF3FD0
:1056F0008146D5D1A3895B063FF57EAF09987DE74A
:1057000003AB009322460A4B04A9304600F088F808
:10571000ECE700BF485C0008885C0008685C000893
:10572000285C00088E5C0008925C00080000000005
:10573000E35400082DE9F04791461F468A680B693B
:10574000DDF820809342B8BF1346C9F8003091F8C5
:10575000432006460C4612B10133C9F800302368D5
:10576000990642BFD9F800300233C9F800302568E5
:1057700015F0060507D104F1190AE368D9F80020ED
:105780009B1AAB4228DC94F843302268003318BFE0
:10579000012392062DD404F1430239463046C04716
:1057A000013020D02368E568D9F8002003F0060313
:1057B000042B08BFAD1AA36822690CBF25EAE57562
:1057C00000259342C4BF9B1AED184FF000091A340C
:1057D0004D451AD1002008E0012352463946304693
:1057E000C047013003D14FF0FF30BDE8F0870135ED
:1057F000C3E7E1185A1C302081F84300224494F892
:10580000451082F843100233C5E70123224639468A
:105810003046C0470130E6D009F10109D8E7000061
:105820002DE9F04301F1430C0C46097E85B06E2949
:105830001746064698460C9A00F0B38022D8632992
:1058400036D00AD8002900F0B980582900F08380AA
:1058500004F1420584F8421032E0642901D069293C
:10586000F6D120681368050603F104012AD51B68E8
:105870001160002B03DA2D225B4284F843206F482D
:105880000A2239E0732900F09D8008D86F2920D0C2
:105890007029DDD1236843F02003236003E07529DC
:1058A00017D07829D4D1782384F84530644855E05E
:1058B0001368191D1B68116004F1420584F8423019
:1058C00001238CE01B68116010F0400F18BF1BB261
:1058D000CFE713682568181D1060280601D51B68DE
:1058E00002E06806FBD51B8854486F2914BF0A22C2
:1058F0000822002184F843106568A560002DC0F2DD
:105900009580216821F004012160002B3DD1002DFC
:1059100040F08E806546082A0BD12368DB0708D546
:10592000236962689A42DEBF302305F8013C05F125
:10593000FF35ACEB05032361CDF800803B4603AA9D
:1059400021463046FFF7F6FE01304DD14FF0FF30D3
:1059500005B0BDE8F083394884F845101368216824
:105960001D1D1B6815600A060BD5CA0744BF41F010
:10597000200121601BB9226822F02002226010223F
:10598000B7E74D0648BF9BB2EFE76546B3FBF2F1C0
:1059900002FB1133C35C05F8013D0B460029F5D12C
:1059A000B9E7136825686169181D106028061B682F
:1059B00001D5196002E06A06FBD519800023236136
:1059C0006546B9E71368191D11601D6862680021FA
:1059D0002846FAF7FDFB08B1401B6060636823614D
:1059E000002384F84330A7E723692A463946304626
:1059F000C0470130AAD023689B0713D4E068039BFB
:105A00009842B8BF1846A3E701234A4639463046B4
:105A1000C04701309AD00135E368039A9B1AAB4224
:105A2000F2DCEBE7002504F11909F5E7002BACD116
:105A3000037884F8423004F142056CE7995C000871
:105A4000AA5C000838B5064C0023054608462360CA
:105A5000FEF7F2FF431C02D1236803B12B6038BD6F
:105A60009802002010B50C46B1F90E1000F096F81F
:105A70000028ABBF636DA3891B1823F48053ACBF10
:105A80006365A38110BD2DE9F0411F468B89DB05BD
:105A900005460C46164605D502230022B1F90E1024
:105AA00000F068F8A389B4F90E1023F48053A381A1
:105AB00032463B462846BDE8F04100F017B810B525
:105AC0000C46B1F90E1000F055F8431CA38915BF20
:105AD000606523F4805343F48053A38118BFA381EE
